{
  "contractName": "Election",
  "abi": [
    {
      "constant": true,
      "inputs": [],
      "name": "candidatesCount",
      "outputs": [
        {
          "name": "",
          "type": "uint256"
        }
      ],
      "payable": false,
      "stateMutability": "view",
      "type": "function"
    },
    {
      "constant": true,
      "inputs": [
        {
          "name": "",
          "type": "uint256"
        }
      ],
      "name": "candidates",
      "outputs": [
        {
          "name": "id",
          "type": "uint256"
        },
        {
          "name": "name",
          "type": "string"
        },
        {
          "name": "voteCount",
          "type": "uint256"
        }
      ],
      "payable": false,
      "stateMutability": "view",
      "type": "function"
    },
    {
      "constant": true,
      "inputs": [
        {
          "name": "",
          "type": "address"
        }
      ],
      "name": "voters",
      "outputs": [
        {
          "name": "",
          "type": "bool"
        }
      ],
      "payable": false,
      "stateMutability": "view",
      "type": "function"
    },
    {
      "inputs": [],
      "payable": false,
      "stateMutability": "nonpayable",
      "type": "constructor"
    },
    {
      "anonymous": false,
      "inputs": [
        {
          "indexed": true,
          "name": "_candidateID",
          "type": "uint256"
        }
      ],
      "name": "votedEvent",
      "type": "event"
    },
    {
      "constant": false,
      "inputs": [
        {
          "name": "_candidateID",
          "type": "uint256"
        }
      ],
      "name": "vote",
      "outputs": [],
      "payable": false,
      "stateMutability": "nonpayable",
      "type": "function"
    }
  ],
  "bytecode": "0x608060405234801561001057600080fd5b506100556040518060400160405280600b81526020017f43616e646964617465203100000000000000000000000000000000000000000081525061009e60201b60201c565b6100996040518060400160405280600b81526020017f43616e646964617465203200000000000000000000000000000000000000000081525061009e60201b60201c565b6101bf565b60026000815480929190600101919050555060405180606001604052806002548152602001828152602001600081525060016000600254815260200190815260200160002060008201518160000155602082015181600101908051906020019061010992919061011a565b506040820151816002015590505050565b828054600181600116156101000203166002900490600052602060002090601f016020900481019282601f1061015b57805160ff1916838001178555610189565b82800160010185558215610189579182015b8281111561018857825182559160200191906001019061016d565b5b509050610196919061019a565b5090565b6101bc91905b808211156101b85760008160009055506001016101a0565b5090565b90565b6103e0806101ce6000396000f3fe608060405234801561001057600080fd5b506004361061004c5760003560e01c80630121b93f146100515780632d35a8a21461007f5780633477ee2e1461009d578063a3ec138d14610152575b600080fd5b61007d6004803603602081101561006757600080fd5b81019080803590602001909291905050506101ae565b005b6100876102cc565b6040518082815260200191505060405180910390f35b6100c9600480360360208110156100b357600080fd5b81019080803590602001909291905050506102d2565b6040518084815260200180602001838152602001828103825284818151815260200191508051906020019080838360005b838110156101155780820151818401526020810190506100fa565b50505050905090810190601f1680156101425780820380516001836020036101000a031916815260200191505b5094505050505060405180910390f35b6101946004803603602081101561016857600080fd5b81019080803573ffffffffffffffffffffffffffffffffffffffff169060200190929190505050610394565b604051808215151515815260200191505060405180910390f35b6000803373ffffffffffffffffffffffffffffffffffffffff1673ffffffffffffffffffffffffffffffffffffffff16815260200190815260200160002060009054906101000a900460ff161561020457600080fd5b60008111801561021657506002548111155b61021f57600080fd5b60016000803373ffffffffffffffffffffffffffffffffffffffff1673ffffffffffffffffffffffffffffffffffffffff16815260200190815260200160002060006101000a81548160ff0219169083151502179055506001600082815260200190815260200160002060020160008154809291906001019190505550807ffff3c900d938d21d0990d786e819f29b8d05c1ef587b462b939609625b684b1660405160405180910390a250565b60025481565b6001602052806000526040600020600091509050806000015490806001018054600181600116156101000203166002900480601f0160208091040260200160405190810160405280929190818152602001828054600181600116156101000203166002900480156103845780601f1061035957610100808354040283529160200191610384565b820191906000526020600020905b81548152906001019060200180831161036757829003601f168201915b5050505050908060020154905083565b60006020528060005260406000206000915054906101000a900460ff168156fea165627a7a723058200bb9bea8945dc599d869c08406c8f4c65ea22a2caa3133de09b346493a9d41110029",
  "source": "pragma solidity ^0.5.0;\r\n\r\n/*\r\n  *  web3.eth.getAccounts().then(function(acc) { account = acc; }) - this gets all the accounts\r\n  *  Allows you to call account[0] for first accounts\r\n  *  app.vote(1, {from: account[0]}) - will cast vote to candidate 1 from account 0\r\n*/\r\n\r\ncontract Election {\r\n    // Model candidate\r\n\r\n    /*\r\n    * Can't access this vars using id, name, voteCount\r\n    * Must us position in function\r\n    * ex candidate[1] will return id\r\n    * candidate[0].toNumber will return int\r\n    */\r\n    struct Candidate {\r\n      uint id;\r\n      string name;\r\n      uint voteCount;\r\n    }\r\n    // Store users who have voted\r\n    mapping(address => bool) public voters;\r\n\r\n    // Store candidate\r\n    // Fetch Candidate\r\n    /*\r\n    * Keeps list of candidates\r\n    */\r\n    mapping(uint => Candidate) public candidates;\r\n    // Store candidate count\r\n    // Fetches all possible candidates from mapping\r\n    uint public candidatesCount;\r\n\r\n    //voted event\r\n    event votedEvent (\r\n      uint indexed _candidateID\r\n    );\r\n\r\n    // Constructor\r\n    constructor() public {\r\n      addCandidate(\"Candidate 1\");\r\n      addCandidate(\"Candidate 2\");\r\n    }\r\n\r\n    // private means no one but the contract can addCandidate\r\n    function addCandidate (string memory _name) private {\r\n        candidatesCount ++;\r\n        candidates[candidatesCount] = Candidate(candidatesCount, _name, 0);\r\n    }\r\n\r\n    // Sol allows metadata to also be passed to function\r\n    function vote (uint _candidateID) public{\r\n      // Check if acc voted before\r\n      require(!voters[msg.sender]); // require this acc hasnt voted yet, else stopped\r\n\r\n      // Check valid candidate\r\n      require(_candidateID > 0 && _candidateID <= candidatesCount);\r\n\r\n      //Record that voter has voted (only allowed once)\r\n      voters[msg.sender] = true;  // Ref voters mapping and setting val to T\r\n\r\n      //Update candidate vote count\r\n      candidates[_candidateID].voteCount ++; //Ref candidates mapping and inc count\r\n      emit votedEvent(_candidateID);\r\n    }\r\n}\r\n",
  "sourcePath": "C:/Users/Michael/Desktop/CASE4/electionContract/contracts/Election.sol",
  "compiler": {
    "name": "solc",
    "version": "0.5.8+commit.23d335f2.Emscripten.clang"
  },
  "schemaVersion": "3.0.17",
  "updatedAt": "2019-11-06T17:59:54.627Z",
  "networkType": "ethereum",
  "devdoc": {
    "methods": {}
  },
  "userdoc": {
    "methods": {}
  }
}