{
  "contractName": "Wager",
  "abi": [
    {
      "constant": true,
      "inputs": [
        {
          "name": "",
          "type": "uint256"
        }
      ],
      "name": "teams",
      "outputs": [
        {
          "name": "id",
          "type": "uint256"
        },
        {
          "name": "name",
          "type": "string"
        },
        {
          "name": "pickCount",
          "type": "uint256"
        }
      ],
      "payable": false,
      "stateMutability": "view",
      "type": "function"
    },
    {
      "constant": true,
      "inputs": [],
      "name": "teamsCount",
      "outputs": [
        {
          "name": "",
          "type": "uint256"
        }
      ],
      "payable": false,
      "stateMutability": "view",
      "type": "function"
    },
    {
      "constant": true,
      "inputs": [
        {
          "name": "",
          "type": "address"
        }
      ],
      "name": "players",
      "outputs": [
        {
          "name": "",
          "type": "bool"
        }
      ],
      "payable": false,
      "stateMutability": "view",
      "type": "function"
    },
    {
      "inputs": [],
      "payable": false,
      "stateMutability": "nonpayable",
      "type": "constructor"
    },
    {
      "anonymous": false,
      "inputs": [
        {
          "indexed": true,
          "name": "_teamID",
          "type": "uint256"
        }
      ],
      "name": "pickEvent",
      "type": "event"
    },
    {
      "constant": false,
      "inputs": [
        {
          "name": "_teamID",
          "type": "uint256"
        }
      ],
      "name": "pick",
      "outputs": [],
      "payable": false,
      "stateMutability": "nonpayable",
      "type": "function"
    }
  ],
  "bytecode": "0x608060405234801561001057600080fd5b506100556040518060400160405280600881526020017f5365616861776b7300000000000000000000000000000000000000000000000081525061009e60201b60201c565b6100996040518060400160405280600881526020017f50617472696f747300000000000000000000000000000000000000000000000081525061009e60201b60201c565b6101bf565b60026000815480929190600101919050555060405180606001604052806002548152602001828152602001600081525060016000600254815260200190815260200160002060008201518160000155602082015181600101908051906020019061010992919061011a565b506040820151816002015590505050565b828054600181600116156101000203166002900490600052602060002090601f016020900481019282601f1061015b57805160ff1916838001178555610189565b82800160010185558215610189579182015b8281111561018857825182559160200191906001019061016d565b5b509050610196919061019a565b5090565b6101bc91905b808211156101b85760008160009055506001016101a0565b5090565b90565b61038a806101ce6000396000f3fe608060405234801561001057600080fd5b506004361061004c5760003560e01c80633ed2b77a146100515780637701ea4a14610106578063c497bc4c14610134578063e2eb41ff14610152575b600080fd5b61007d6004803603602081101561006757600080fd5b81019080803590602001909291905050506101ae565b6040518084815260200180602001838152602001828103825284818151815260200191508051906020019080838360005b838110156100c95780820151818401526020810190506100ae565b50505050905090810190601f1680156100f65780820380516001836020036101000a031916815260200191505b5094505050505060405180910390f35b6101326004803603602081101561011c57600080fd5b8101908080359060200190929190505050610270565b005b61013c610338565b6040518082815260200191505060405180910390f35b6101946004803603602081101561016857600080fd5b81019080803573ffffffffffffffffffffffffffffffffffffffff16906020019092919050505061033e565b604051808215151515815260200191505060405180910390f35b6001602052806000526040600020600091509050806000015490806001018054600181600116156101000203166002900480601f0160208091040260200160405190810160405280929190818152602001828054600181600116156101000203166002900480156102605780601f1061023557610100808354040283529160200191610260565b820191906000526020600020905b81548152906001019060200180831161024357829003601f168201915b5050505050908060020154905083565b60008111801561028257506002548111155b61028b57600080fd5b60016000803373ffffffffffffffffffffffffffffffffffffffff1673ffffffffffffffffffffffffffffffffffffffff16815260200190815260200160002060006101000a81548160ff0219169083151502179055506001600082815260200190815260200160002060020160008154809291906001019190505550807f04875a4f81352ac28ce0c582341b9af8e649c84d127a1fd29b727191ec16204160405160405180910390a250565b60025481565b60006020528060005260406000206000915054906101000a900460ff168156fea165627a7a72305820d4e61ef172b8c063aecb5ccee9d857451105ec3f016358acc673d62abd6af4dd0029",
  "source": "pragma solidity ^0.5.0;\r\n\r\n/*\r\n  *  web3.eth.getAccounts().then(function(acc) { account = acc; }) - this gets all the accounts\r\n  *  Allows you to call account[0] for first accounts\r\n  *  app.pick(1, {from: account[0]}) - will cast pick to team 1 from account 0\r\n*/\r\n\r\ncontract Wager {\r\n    // Model team\r\n\r\n    /*\r\n    * Can't access this vars using id, name, pickCount\r\n    * Must us position in function\r\n    * ex team[1] will return id\r\n    * team[0].toNumber will return int\r\n    */\r\n    struct Team {\r\n      uint id;\r\n      string name;\r\n      uint pickCount;\r\n    }\r\n    // Store users who have placed wager\r\n    mapping(address => bool) public players;\r\n\r\n    // Store team\r\n    // Fetch Team\r\n    /*\r\n    * Keeps list of teams\r\n    */\r\n    mapping(uint => Team) public teams;\r\n    // Store team count\r\n    // Fetches all possible teams from mapping\r\n    uint public teamsCount;\r\n\r\n    //pick event\r\n    event pickEvent (\r\n      uint indexed _teamID\r\n    );\r\n\r\n    // Constructor\r\n    constructor() public {\r\n      // Want to add teams based on ML algo\r\n      addTeam(\"Seahawks\");\r\n      addTeam(\"Patriots\");\r\n    }\r\n\r\n    // private means no one but the contract can addTeam\r\n    function addTeam (string memory _name) private {\r\n        teamsCount ++;\r\n        teams[teamsCount] = Team(teamsCount, _name, 0);\r\n    }\r\n\r\n    // Sol allows metadata to also be passed to function\r\n    function pick (uint _teamID) public{\r\n      // Check valid team\r\n      require(_teamID > 0 && _teamID <= teamsCount);\r\n\r\n      //Record that player has placed a pick\r\n      players[msg.sender] = true;  // Ref players mapping and setting val to True\r\n\r\n      //Update team pick count\r\n      teams[_teamID].pickCount ++; //Ref teams mapping and inc count\r\n      emit pickEvent(_teamID);\r\n    }\r\n}\r\n",
  "sourcePath": "C:/Users/Michael/Desktop/CASE4/Pick60/Wager_Contract/contracts/Wager.sol",
  "compiler": {
    "name": "solc",
    "version": "0.5.8+commit.23d335f2.Emscripten.clang"
  },
  "schemaVersion": "3.0.17",
  "updatedAt": "2019-11-07T12:30:34.678Z",
  "networkType": "ethereum",
  "devdoc": {
    "methods": {}
  },
  "userdoc": {
    "methods": {}
  }
}